:020000040800F2
:100000001815002001010008990F00089D0E000836
:10001000950F0008A5070008711E000800000000E9
:10002000000000000000000000000000A91500080A
:10003000C90B00080000000099130008C115000852
:100040001B0100081B0100081B0100081B01000820
:100050001B0100081B010008CD0B0008150C00084F
:100060001B0100081B0100081B0100081B01000800
:100070001B0100081B0100081B010008A90700085C
:100080001B0100081B0100081B0100081B010008E0
:100090001B0100081B0100081B0100081B010008D0
:1000A0001B0100081B0100081B0100081B010008C0
:1000B0001B0100081B0100081B0100081B010008B0
:1000C0001B0100081B0100081B0100081B010008A0
:1000D0001B010008411900081B0100081B01000852
:1000E0001B0100081B0100081B010008DFF80CD0F1
:1000F00000F052F900480047CD1E000818150020F6
:100100000648804706480047FEE7FEE7FEE7FEE7B1
:10011000FEE7FEE7FEE7FEE7FEE7FEE73118000830
:10012000ED000008D2B201E000F8012B491EFBD21D
:1001300070470022F6E710B513460A4604461946F2
:10014000FFF7F0FF204610BD30B5044600200346FF
:1001500000E05B1C934203D2E05CCD5C401BF8D016
:1001600030BD00000FB400B58DB010A909900B9000
:1001700000914FF0FF300A9000200C900548069047
:10018000054807906A4609A80F9900F0D7F80DB006
:100190005DF814FB59030008770300082DE9FF5FA1
:1001A0001D464FF0FF3BD5E9014691465F464FF0B3
:1001B0000008A9697F1C01988847296A82468847F8
:1001C0000028F6D1BAF1FF3F0CD024F4C064002E11
:1001D00019DD600614D5BAF12B0F09D0BAF12D0F35
:1001E0000ED103E0584604B0BDE8F09F44F48064AB
:1001F000A9697F1C01988847761E8246002E02DD81
:10020000BAF1300F03D0B9F1000F26D032E0A9695E
:10021000761E44F400747F1C019888478246002EA5
:1002200005DDBAF1780F06D0BAF1580F03D0B9F155
:10023000000F10D01EE0B9F1000F02D0B9F1100F7D
:1002400018D1A969761E24F400747F1C0198884790
:100250008246102002E0082000E00A20814609E0E2
:1002600008FB0908A969761E44F400747F1C0198F4
:1002700088478246002E05DD4946504600F04AF880
:100280000028EDDAE96901988847A00502D46FF0EB
:100290000100A8E7E00725D1600613D5600502D567
:1002A000C8F1000000E0404629680A1D2A6009687C
:1002B000220501D5087015E0220701D5088011E05C
:1002C00008600FE02868011D29600068210502D53B
:1002D00080F8008006E0210702D5A0F8008001E048
:1002E000C0F8008038467EE730B50B460146002056
:1002F0002022012409E021FA02F59D4205D303FAE8
:1003000002F5491B04FA02F52844151EA2F1010268
:10031000F1DC30BD3A2800D2303820F02002412AEA
:1003200001D3A2F13700884201D34FF0FF3070476C
:10033000026811441378016018467047D16004497F
:1003400051610449116200211161114600F042B867
:1003500031030008C9030008426842B1016811F87E
:10036000013B23B1521EC0E900121846704701211B
:10037000C160881E704742685AB1C368016843B9BA
:1003800083688B4205D0491E521CC0E90012002030
:1003900070474FF0FF3070471CB50948009009487E
:1003A00001900546009C06E0E06840F0010394E8F7
:1003B000070098471034AC42F6D3FFF79BFE0000CD
:1003C0006025000880250008C0B24FF4F05100F00D
:1003D00097B900002DE9F34F8BB04FF0000801F101
:1003E0000C000C464FF0010B46460DF1080A019037
:1003F0006269012101989047051E2DD0252D2CD032
:10040000216A8847C0B16269012101989047216A39
:1004100088470028F7D1411E62690198904700E0A3
:10042000761CA1690B988847216A88470028F7D174
:10043000E1690B988847DBE7A1690B988847074675
:10044000A84201D1761CD3E7E1690B9888477F1C4D
:1004500002D1B8F1000F6FD046E1002762693D4636
:100460003946019890472A2804D1626901210198F0
:1004700090470125DFF88492626901210198904735
:10048000A0F130010A290AD24F45E5DC07EB8701CC
:1004900000EB4107303FDFD445F01005ECE7E906FB
:1004A00001D46FF000476C280AD04C2814D068287B
:1004B00015D06A280DD074281CD07A281AD01DE0D7
:1004C00062690121019890476C2802D045F004052B
:1004D00014E045F002050DE045F020050AE06269F0
:1004E000012101989047682802D045F0080505E0F1
:1004F00045F400656269012101989047C4E90157FC
:1005000065283DD019DC58287AD00CDC452837D036
:1005100004DC252826D0412831D131E046282FD0CF
:1005200047282CD12CE05B2877D0612828D063287D
:100530007CD0642823D15AE0D0E06F2848D008DC72
:1005400066281DD067281BD0692821D06E2816D1B7
:1005500027E0702845D0732868D0752847D07828C0
:100560000DD14DE0A1690B988847054625283FF439
:1005700069AFE1690B9888476D1C3FF46AAFB3E03F
:1005800023466A466FF001000B99AFF300809EE0AE
:1005900045F040006060A80723464FF0000236D4C3
:1005A0003EE0E8077FF447AF2068011D2160006846
:1005B000290501D506701BE7290701D5068017E735
:1005C000A90703D5F117C0E9006111E706600FE73D
:1005D00045F040006060A80723464FF0080216D49B
:1005E0001EE040F60E0125EA0100606016E045F0CD
:1005F00040006060A80723464FF00A0207D40FE0CE
:1006000045F040006060A80708D5234610226FF02F
:1006100001000B99AFF3008059E007E02346102258
:100620006FF001000B99FFF7B9FD50E04FF00009A2
:100630004F464B46632802D05B2806D040E0E806D0
:1006400001D40120A06001273AE0626901210198EC
:1006500090475E2805D14FF001096269494601982B
:100660009047216939B900210A46534643F82120B1
:10067000491C0829FADBB0B3216969B9C11700EB3D
:10068000D16253110AEB830122F01F02821A01206A
:100690000B68904003430B60626901210198904709
:1006A0005D28E8D1B9F1000F09D00020514651F87A
:1006B0002020D24341F82020401C0828F7DB02AB61
:1006C000224600976FF001000B99AFF300800028DD
:1006D0000CDA401C08D1BBF1000F05D04FF0FF3001
:1006E0000DB0BDE8F08FFFE74046F9E7E90701D11B
:1006F00008F1010806444FF0000B79E6CCCCCC0C95
:100700007F2801D9002208E0064A02EB5002C00708
:10071000127800D1120902F00F0201209040084027
:1007200070470000C421000870B58C1810F8015BF8
:1007300015F0070301D110F8013B2A1106D110F87A
:10074000012B03E010F8016B01F8016B5B1EF9D17E
:100750002B0705D40023521E0DD401F8013BFAE704
:1007600010F8013BCB1A921C03E013F8015B01F86F
:10077000015B521EF9D5A142D8D3002070BD000004
:1007800081B00090009841F21851484302E000BF48
:100790000098013800900098002804BF01B070470D
:1007A000F6E70000FEE70000B0B54FF4802000F04F
:1007B00085F9012812D140F68C00C2F20000441ED7
:1007C000FA2500BF14F8010F01F0E4FC013DF9D156
:1007D0004FF48020BDE8B04000F022B84FF4003064
:1007E00000F06CF9012818BFB0BD40F68C00C2F2D1
:1007F000000000F1F904FA2514F8010F01F0CAFC19
:10080000013DF9D14FF40030BDE8B04000F008B828
:100810000422010FC4F2020261F38A2210607047C1
:100820000422010FC4F2020261F38A2210607047B1
:1008300002684FF6FE7C42F00103002908BF02EA7D
:100840000C0303607047000070B58CB000F042F8F4
:100850000120012100F0A2FD43F60004C4F20104CE
:10086000201D0190102003904FF4FA700490002096
:100870008021442640F6B365CDE906104FF480513F
:10088000C4F20206C2F200050590CDE90800CDE9E8
:100890000A1001A93046029500F024F930460121E2
:1008A000FFF7C6FF42F22C50C0F6000001F078FCC2
:1008B00042F2C541C0F6000128464FF4FA7201F039
:1008C00063FB20468021012201F054F900F09CF8DE
:1008D0000CB070BD70B58CB00120012100F05EFD40
:1008E00042F218202021C0F600000491402101901E
:1008F00040F60C0005918021C2F2000006914FF4F1
:1009000000710290002007914FF400610390CDE93F
:1009100008104FF400506C240A904FF48040C4F249
:1009200002040B9001A9204600F0DCF84FF40010FF
:10093000FFF76EFF20460121FFF77AFF4FF400100A
:1009400000F0B0F80028F9D042F2182040F60C016F
:1009500041F21006C0F60000C2F200012022C4F2EB
:10096000010600BF03680C68A34212D1013A0430AB
:10097000150401F10401F5D1A3420AD116A001F03A
:100980000FFC1DA001F00CFC4FF4005070600CB087
:1009900070BD05A001F004FC0BA001F001FC4FF4B8
:1009A000005030600CB070BD444D415F44656D6FC8
:1009B0005F464C4153485F325F5352414D3A2046A7
:1009C00041494C2E0000000052756E204C45445F9A
:1009D0004F464628292E0000444D415F44656D6F07
:1009E0005F464C4153485F325F5352414D3A20536A
:1009F0005543434553532E0052756E204C45445F7A
:100A00004F4E28292E00000070B58CB040F68C05A2
:100A1000C2F2000528464FF4FA714FF4FA76FFF758
:100A200088FB0120012100F0B9FC43F60004C4F268
:100A30000104201DCDE9010500208021CDE906102B
:100A40002021582509914FF48051C4F20205CDE9C7
:100A5000030605900890CDE90A1001A9284600F088
:100A600041F840F20F10C0F200100090684600F00C
:100A700095FA28460621012200F02CF84FF4C020F8
:100A8000FFF7CEFE28460121FFF7D2FE2046402187
:100A9000012201F06FF80CB070BD0000406880B218
:100AA000704700000022010FC4F2020261F38A22A3
:100AB0001168084018BF0120704700000022010F94
:100AC000C4F2020261F38A221168084018BF0120B3
:100AD00070470000002A02680CBF22EA010111439E
:100AE000016070472DE9F047026847F6F073D1E9DD
:100AF000026A9A4301F11007B0CF01F11C0E324394
:100B0000D1E900899EE80A501A4322432A433A4316
:100B1000114341EA0C0141EA0E010160C0F804A052
:100B2000C0F80880C0F80C90BDE8F08780B54FF49D
:100B30000050FFF7B7FF012818BF80BD4FF40050E9
:100B4000FFF766FE06A001F02BFB4420C4F2020072
:100B50000021FFF76DFE0FA0BDE8804001F020BB33
:100B6000444D415F44656D6F5F5352414D5F325F4D
:100B700055534152543A20555341525431205472E6
:100B8000616E7366657220436F6D706C6574652E5F
:100B900000000000444D415F44656D6F5F55534157
:100BA00052545F325F5352414D3A20555341525493
:100BB0003120456E61626C652052656365697665BA
:100BC0002E2E2E00416070477047000080B5012036
:100BD00000F04AF8C8B11420FFF7D2FD40F600003B
:100BE000C4F20100012100F04FF901280DD142F2B9
:100BF000BD30C0F6000001F0D3FA41F20C00C4F29F
:100C00000100016881F4005101600120BDE88040CD
:100C100000F024B880B5022000F026F8C0B11420FE
:100C2000FFF7AEFD40F60000C4F20100022100F023
:100C30002BF968B942F2BD30C0F6000001F0B0FAFD
:100C400041F20C00C4F20100016881F4005101601E
:100C50000220BDE8804000F001B8000040F21441DD
:100C6000C4F201010860704740F20041C4F2010182
:100C70000A6849690240084018BF0120002A18BFCD
:100C800001221040704700008179002940F20041A4
:100C9000C4F201011FD002680B6893430B604B68DC
:100CA00093434B60037943EA010CDCF800301A43AC
:100CB000CCF8002002688B6893438B60CB68934329
:100CC000CB60407910280ED1886810438860C868CE
:100CD0001043C86070470279006811430A6822EA2D
:100CE00000000860704708430168114301607047C5
:100CF0002DE9F04184B005200121012600F05AFBC6
:100D000040F60004C4F2010403AD482720462946FA
:100D1000ADF80C608DF80F7000F056F84FF0020837
:100D200020462946ADF80C808DF80F7000F04CF885
:100D30000020002100F030F80020012100F02CF804
:100D40004FF4006001ACADF80800204601968DF824
:100D50000A60FFF799FF4FF44060ADF808002046A5
:100D6000CDF804808DF80A60FFF78EFF4FF4C06065
:100D700000F044F940F20610C0F202106C460090F8
:100D8000204600F00BF907208DF80000204600F007
:100D900005F904B0BDE8F08110B50C22082402EA80
:100DA000810201F0FC01C4F201044FF00F0C51F874
:100DB00004E00CFA02F32EEA03030B510B599040A6
:100DC0001843085110BD0000CA7802F00F0CD3067A
:100DD00044BF8B784CEA030C2DE9F04709880B06D9
:100DE00025D082465AF8144B00F1100E00254FF022
:100DF00001094FF00F08002706E000BF1E60013711
:100E0000082F05F1040511D009FA07F60E42F6D0B5
:100E100008FA05F324EA03030CFA05F41C43282A14
:100E20005346EBD0482AEAD17346E7E70460B1F5B0
:100E3000807F38BFBDE8F087436800F1100E00F1F5
:100E4000140900254FF4807A4FF00F08002705E0C1
:100E500034600137082F05F1040512D00AFA07F4AF
:100E600004EA0106A642F4D108FA05F6B3430CFAE7
:100E700005F63343282A4E46EAD0482AE9D1764679
:100E8000E6E74360BDE8F0878068084018BF0120AE
:100E9000704700004161704701617047FEE7000044
:100EA00080B582B00420012100F084FA0C20ADF856
:100EB000040048208DF8070040F60000C4F201004D
:100EC00001A9FFF781FF02B080BD000010B540F618
:100ED0000004C4F201042046042100F007F8204673
:100EE0000821BDE8104000F001B8000070B50C46C4
:100EF0000546FFF7C9FF00B170BD1420FFF740FCA5
:100F000028462146FFF7C0FF002818BF70BD41F2F8
:100F100010060BA0C4F2010601F042F94FF4005094
:100F2000706000BF28462146FFF7AEFF0028F9D0C9
:100F300007A001F035F94FF40050306070BD00BFDC
:100F400052756E204C45445F4F4E28292E000000FC
:100F500052756E204C45445F4F464628292E0000AE
:100F600010B582B01020012100F024FA42F20000F6
:100F700041F20004C1F20300C4F20104019001A98E
:100F80002046FFF721FF20464FF40051FFF784FF72
:100F900002B010BDFEE700007047000010B5C17838
:100FA00000294EF20011CEF200011AD04EF60C527A
:100FB000CEF200021268072323EA12220F23C2F1A5
:100FC000040C23FA02F24378847890F800E003FAE4
:100FD0000CF322401A43120101EB0E0383F80023A5
:100FE00000E080310078012300F01F0203FA02F2D2
:100FF000C0F3421041F8202010BD000040F0806096
:101000004EF60C5140F0FD70CEF2000108607047C2
:1010100080B500F005F8BDE8804000F023B900007D
:1010200010B582B00820012100F0C4F9032040F679
:101030000044C1F20300C4F20104019001A920465A
:10104000FFF7C2FE00F012FA20460121FFF722FF4F
:10105000C82000F0ABFA20460121FFF71DFF204613
:101060000221FFF717FFAE2000F086FA204602218A
:10107000FFF710FFA82000F07FFA20460221FFF7BB
:1010800009FF3F2000F078FA20460221FFF702FF17
:10109000202000F071FA20460221FFF7FBFE02201B
:1010A00000F06AFA20460221FFF7F4FE212000F04A
:1010B00063FA20460221FFF7EDFE002000F05CFA03
:1010C00020460221FFF7E6FE7F2000F055FA204679
:1010D0000221FFF7DFFE222000F04EFA2046022117
:1010E000FFF7D8FE002000F047FA20460221FFF764
:1010F000D1FE072000F040FA20460221FFF7CAFE89
:10110000B02000F039FA20460221FFF7C3FE00208C
:1011100000F032FA20460221FFF7BCFE102000F05A
:101120002BFA20460221FFF7B5FED32000F024FA67
:1011300020460221FFF7AEFE002000F01DFA2046F7
:101140000221FFF7A7FE402000F016FA20460221F8
:10115000FFF7A0FEA12000F00FFA20460221FFF7C2
:1011600099FEC82000F008FA20460221FFF792FEFF
:10117000DA2000F001FA20460221FFF78BFE122050
:1011800000F0FAF920460221FFF784FE812000F0EA
:10119000F3F920460221FFF77DFE7F2000F0ECF9F5
:1011A00020460221FFF776FEA42000F0E5F9204654
:1011B0000221FFF76FFEA62000F0DEF92046022193
:1011C000FFF768FED52000F0D7F920460221FFF78F
:1011D00061FE802000F0D0F920460221FFF75AFE80
:1011E0008D2000F0C9F920460221FFF753FE14209C
:1011F00000F0C2F920460221FFF74CFEAF2000F0BC
:10120000BBF902B010BD000010B582B041F20F145E
:10121000C2F200042078012821D141F20E11C2F25D
:1012200000010A78501C08703AB1C0B2022814D1EB
:1012300040F2044CC2F2000C03E040F2040CC2F293
:10124000000C0020002180220823CDF800C000F00F
:1012500047F84FF4FA7000F0A9F90020207002B0AE
:1012600010BD00002DE9F04140F6802740F6004413
:101270004FF00008C2F20007C4F201042046022128
:10128000FFF708FEA8F15000C0B200F075F9204643
:101290000221FFF7FFFD002000F06EF92046022139
:1012A000FFF7F8FD102000F067F96FF0070600BFA8
:1012B000B819057A20460221FFF7EEFD284600F016
:1012C0005BF90836B6F57E7FF2D108F10108B8F176
:1012D000080F07F1010708BFBDE8F081CEE7000065
:1012E000994228BF70472DE9F04F85B004460009A8
:1012F0001030DDF8388040F60045049004F00F000F
:101300009A4693460E46C4F201050390101B4FF017
:1013100000090190029403E00136F0B2504537D243
:1013200028460221A6F15007FFF7B4FDF8B200F0FD
:1013300023F928460221FFF7ADFD049800F01CF9BF
:1013400028460221FFF7A6FD039800F015F9A345F2
:10135000E2D90198574600EB090AA9F1010900BF3B
:1013600008EB0900447828460221FFF795FD204646
:1013700000F002F909F10200C0B25FFA8AF181427D
:1013800009F10109ECD1029C09F10109BA46C3E750
:1013900005B0BDE8F04F704770470000002941F2EA
:1013A0001401C4F202010A680CBF22EA00001043D3
:1013B00008607047002941F21801C4F202010A686E
:1013C0000CBF22EA000010430860704710B541F2DC
:1013D0000404C4F20204226802F00C02082A41F25A
:1013E0000022C0F27A0212D12368D4F800C0C3F3FD
:1013F000834E5FEACC330EF1020C02D523689B03C7
:1014000003D540F60012C0F23D020CFB02F202606E
:10141000226842F20823C2F30312C0F600039A5C6A
:101420000168D14041602268C2F302229A5C21FA2D
:1014300002F282602268C2F3C2229A5C42F2042362
:10144000D140C1602268C0F60003C2F381329A5CC9
:10145000B1FBF2F1016110BD0288002918BF012122
:1014600022F0400242EA81110180704770B586B0D7
:1014700040F6000441F204000121C4F20104FFF728
:1014800099FFA020C1F60300059005A92046FFF7AB
:101490009BFC4CF20000C0F20410CDF802000020CA
:1014A000CDF806004FF00070CDF80A00072004F5D3
:1014B00020551026ADF812000DF102012846CDF896
:1014C0000E6000F02BF8BDF80C0060B1B0F5007FA5
:1014D00016D11020ADF814008DF8170005A920468C
:1014E000FFF772FC0CE018208DF8170005A92046C4
:1014F000ADF81460FFF768FC2846012100F032F8CF
:1015000028460121FFF7A8FF06B070BD00890840FA
:1015100018BF012070470000818170472DE9F0411C
:1015200002880B8802F4415C4A88B1F804E043EA7F
:101530000C03CC881A430D8942EA0E024E892243DD
:101540008F892A43B1F80E8032433A4342EA0802B7
:101550000280828B22F400628283098A0182BDE8C4
:10156000F08100008288002918BF012122F00402C6
:1015700042EA810181807047B0B543F2000405461C
:10158000C4F2010420460221FFF7C0FF0028F9D071
:1015900020462946FFF7C0FF20468021FFF7B6FF0F
:1015A0000128F9D0B0BD00007047000041F21011D1
:1015B000C2F20001088000BF08880028FCD17047F3
:1015C00000F050B880B540F60400C2F20000006898
:1015D00044F6D351C1F26201A0FB01014FF0FF308C
:1015E0004EF2100200EB9110CEF2000250604EF667
:1015F0002350CEF20000F0210170002107209160FD
:10160000106041F2A800C2F20000A0F11402002311
:1016100002F8143F0133052BC2E90111D160118298
:10162000F6D10121022201754FF0060C00234FF480
:10163000FA7E80F828204FF0FF3200F12C0780F866
:1016400038100321C0E906C3C0F820E04FF47A7CCB
:1016500087E80C1080F83C10C0E91033C0F848E06F
:1016600080BD000041F21010C2F20000018811B1EB
:1016700001880139018041F2A8000021C2F2000076
:1016800003E000BF1431642907D042185368002BCF
:10169000F8D0936801339360F4E790F8381001298B
:1016A00017D1D0E90C12914238BF704741F20C12A9
:1016B000C2F20002137841F20D11C2F200014FF0A4
:1016C000000C0B700121C0F830C082F800C080F817
:1016D000391070472DE9F04F81B041F20C15C2F27C
:1016E0000005287841F20C0641F2A80441F20F19D6
:1016F00041F20D1BC4F2010601300027C2F20004C2
:10170000C2F20009C2F2000B4FF0000A28700EE08E
:1017100099F80000002804BF012089F8000088F82B
:10172000117000BF0AF1140ABAF1640F61D004EB22
:101730000A08D8F804000028F4D098F8100001280E
:1017400008D00028EED1D8E90212914213D2012824
:10175000E8D100BF98F811000128E3D114F80A007D
:101760000328D5D0022813D00128D8D1306880F4BE
:1017700000503060D3E714F80A00032818D002287C
:101780001ED001282BD1306880F40050306026E054
:1017900094F8380018B928782F708BF800009BF85F
:1017A000001042F2F430C0F6000000F0DDFBB6E7B6
:1017B00099F80000002804BF012089F800000EE01D
:1017C00094F8380018B928782F708BF800009BF82F
:1017D000001042F2F430C0F6000000F0C5FBD8F86B
:1017E0000400C8F808700128A4BF0138C8F8040034
:1017F00098E701B0BDE8F08F80B541F2A80C00EB8E
:10180000800EC2F2000C0CEB8E030CF82E000020B0
:10181000C3E90110DA6080BD41F2A80100EB80004D
:10182000C2F2000101EB800000214160704700001E
:1018300082B041F20400C4F2020050F8041C0022FD
:1018400041F0010140F8041C0168CFF6FF0211408D
:10185000016050F8041C4FF6FF72CFF6F66211409B
:1018600040F8041C50F8041C21F4802140F8041CAA
:10187000016821F4FE0101604FF41F014160002165
:101880000191009150F8041C41F4803140F8041C8F
:1018900050F8041C01F400310091019901310191CB
:1018A000009919B90199B1F5A06FF1D150F8041C54
:1018B000890354BF0021012100910099012936D1EB
:1018C00042F20001C4F202010A6842F010020A600A
:1018D0000A6822F007020A600A6842F002020A60FF
:1018E0000168016001680160016841F48061016084
:1018F000016821F47C110160016841F4E811016084
:1019000050F8041C41F0807140F8041C50F8041C8D
:101910008901FBD5016821F003010160016841F0F4
:1019200002010160016801F00C010829FAD14EF6AC
:101930000850CEF200004FF00061016002B0704725
:101940002DE9F04F95B043F60004C4F2010420469F
:1019500040F2244100F01CF9012824D15825C4F29A
:1019600002052846FFF79AF8002818BFB0F5FA7F5D
:101970001CD142F2CF30C0F6000000F011FC284626
:101980000021FEF755FF28464FF4FA71FFF71AF9C8
:1019900028460121FEF74CFF204600F061FA204660
:1019A000102100F087F815B0BDE8F08FFA28E0D0DC
:1019B000F92814D8C0F5FA70FB28D8BFFB20A0F195
:1019C000FA0640F68C00C2F2000000F1F90700BFF1
:1019D00017F8010F00F0DEFB013EF9D1C9E7FA2844
:1019E000CDD04FEA900ABAF17C0FC0F5FA7B0FD840
:1019F00040F68C00C2F200005F46461EBBF1010FAC
:101A0000D8BF012716F8010F00F0C4FB013FF9D140
:101A100042F2CF30C0F6000000F0C2FB40F60808EA
:101A2000C2F2000898F800000028A8D140F68069AA
:101A3000C2F2000948463221FEF77BFB40F6B26055
:101A4000C2F200000021BAF17C0F01702ED840F6DE
:101A50008C01C2F20001BBF1010FD8BF4FF0010BA6
:101A60000AE00A7803785F1C077009F80320BBF1CD
:101A7000010B01F1010119D00A782E2A16D0027843
:101A8000302AEED90278312AF1D10078002109F804
:101A9000001042F2753101AEC0F60001304632222C
:101AA00000F072FA2046314600F0E4F9012088F88F
:101AB000000064E7C9430180704700008289002963
:101AC00018BF012122F4005242EA4131818170475E
:101AD000F0B587B0042001210427FFF76BFC4FF419
:101AE00080400121FFF766FC43F6000440F200202D
:101AF000C4F20104C1F60300A4F5405505AE0590FB
:101B000028463146FFF760F94FF48060ADF81400C5
:101B1000284631468DF81770FFF756F94FF4E1303B
:101B2000019000204FF4402102900391ADF8100085
:101B300001A9204600F05CF840F22510C0F2011027
:101B4000069006A8FFF72AFA204600F089F92046F9
:101B500040F22551012200F033F8204640F22441A2
:101B6000012200F02DF820460121FFF7A7FF07B062
:101B7000F0BD0000002A828A0CBF22EA0101114355
:101B8000818270470088084018BF0120704700001C
:101B9000C1F34212022A06D0012A14BF00F1140236
:101BA00000F10C0201E000F110021288008801F03F
:101BB0001F03090ADA40C840104000F001007047D6
:101BC000C1F3421301F01F0C1421022B08BF102196
:101BD000012B4FF0010308BF0C21002A03FA0CF27D
:101BE00043580CBF23EA02021A43425070470000D8
:101BF00070B586B00446008A0D46C98820F440506E
:101C000008432082A0894EF6F3110840A9882A894A
:101C10006B89084310431843A081A08AA98920F446
:101C20004070084301AEA0823046FFF7CFFB43F679
:101C3000000106F10800C4F201018C4208BF06F160
:101C40000C0000681922B4F90C1050432A680123D3
:101C5000B1F1FF3FC8BF022302FA03F1B0FBF1F07C
:101C600048F21F51C5F2EB11A0FB01235A096FF096
:101C7000630302FB0300B4F90C300326B3F1FF3F0A
:101C8000C8BF042600FA06F000F13200A0FB0101F3
:101C90004FF00700C8BF0F2000EA511040EA0210C1
:101CA000208106B070BD0000B0B582B040F60805D6
:101CB000C2F200052878012840F0858040F6806453
:101CC000C2F2000441A0214600F04EF946A1204690
:101CD0000822FEF739FA18B146A000F061FA6AE06E
:101CE000208944F64F61884229D008344FA120460C
:101CF0000322FEF729FAB0B34DA120460622FEF7D3
:101D000023FA002843D04CA120460522FEF71CFAF6
:101D1000002850D10020019049A101AA2046FEF7D9
:101D200021FA019942F20F40C0F6000000F01CF9C0
:101D3000019A01204FF0FF31FFF75EFD3BE042F2D8
:101D4000A340C0F6000000F02BFA42F24D40C0F66E
:101D5000000000F025FA41F20C00C4F201004FF43B
:101D60000051816024E042F28240C0F6000000F0A1
:101D700017FA42F23E40C0F6000000F011FA41F2BC
:101D80000C00C4F201004FF40051416010E042F237
:101D90005B40C0F6000000F003FA2CA000F000FA4F
:101DA00041F20C00C4F20100016881F400510160AD
:101DB0000120FFF731FD40F60900C2F200000121C9
:101DC00001700020287002B0B0BD00BF55534152D1
:101DD000545F434D445F52656365697665643A209C
:101DE0005B25735D2E0A0000434D442B4C45442B6C
:101DF000000000004661696C656420746F206765AF
:101E0000742076616C696420434D442B4C45442B0F
:101E10003C4F4E2F4F46462F544F47474C452F427D
:101E20004C494E4B3D6D732A3E202E004F464600D6
:101E3000544F47474C450000424C494E4B00000070
:101E4000424C494E4B3D25640000000052756E2007
:101E50004C45445F544F47474C4528292E0000000D
:101E600080886FF35F2070476FF35F218180704738
:101E7000FEE7000070B50D4604460026A95D204629
:101E8000FFF7F2FF20468021FFF77CFE0028F9D003
:101E90000136A85D0028F1D120464021FFF772FEEF
:101EA0000028F9D070BD0000B0B543F60005C4F2BB
:101EB00001050446C1B22846FFF7D6FF2846802117
:101EC000FFF760FE0028F9D02046B0BDFFF748F8C4
:101ED000FEF7E6FFFEF70CFFFFF774FBFFF7F8FDD8
:101EE00012A000F05DF942F29820C0F6000000F068
:101EF00057F942F2E320C0F6000000F051F942F237
:101F00003130C0F6000000F04BF9FEF79DFCFFF702
:101F10007FF800BFFFF7DEFBFEF7D8FFFFF7C4FE38
:101F2000FEF704FEFFF770F9F4E700BF5465737421
:101F3000313A20444D412B5553415254E5AE9EE772
:101F40008EB0E4B8B2E58FA3E68EA5E694B6E4B809
:101F50008DE5AE9AE995BFE695B0E68DAEE5B9B6EA
:101F6000E59B9EE698BE2E000FB4054B10B503A965
:101F7000044A029800F02CF810BC5DF814FB000035
:101F8000A91E0008000000200FB4084B10B504A9DA
:101F900002AA039800F01CF8044602A9002000F0F1
:101FA000F3F8204610BC5DF814FB000089210008FE
:101FB00002E008C8121F08C1002AFAD17047704712
:101FC000002001E001C1121F002AFBD17047000070
:101FD0002DE9FF4F8BB09A460F460546002606E0D6
:101FE00025280BD052460D9990476D1C761C2878F9
:101FF0000028F5D10FB03046BDE8F08F0024A04690
:102000000122604900E0044315F8013F203B02FA39
:1020100003F00842F7D128782E2817D115F8010FC0
:1020200044F004042A280ED06FF02F022878A0F183
:10203000300109290AD808EB880102EB410100EBC5
:1020400001086D1CF2E757F8048B6D1C287869288D
:102050003ED006DC0028CDD063280BD0642804D104
:1020600036E0732810D075284BD052460D99904712
:10207000761C85E017F8040B8DF8000000208DF821
:102080000100E946012003E057F8049B4FF0FF30C0
:1020900061074FF0000401D40AE0641C44450DDAE6
:1020A0008442FADB19F804100029F6D106E0641C1A
:1020B0008442FCDB19F804100029F8D1264404E01E
:1020C00019F8010B52460D999047641EF8D257E05B
:1020D00001CF4FF00A0B002802DA40422D2102E026
:1020E000210504D52B218DF82410012103E0E107FF
:1020F00005D02021F7E70DF1200908910CE000211F
:10210000F9E701CF4FF00A0BF9E75946FEF7ECF873
:1021100001F1300209F8012D0028F6D1ADEB0900DC
:1021200000F1200B600701D44FF00108D84502DD13
:10213000A8EB0B0000E000208046002406E009A880
:102140005246005D0D999047641C761C08988442A5
:10215000F5DB04E0302052460D999047761CB8F12B
:102160000001A8F10108F5DC05E019F8010B524661
:102170000D999047761CBBF10001ABF1010BF4DC2B
:102180006D1C34E7092801000A68531C0B601070AD
:10219000704700000149FFF787BE000000000020E3
:1021A00010B5044601E0FFF77FFE14F8010B044967
:1021B0000028F8D1BDE810400A20FFF775BE0000E6
:1021C00000000020DDDDDDDDDCBBBBDDDDDDDDDDD8
:1021D000DDDDDDDD9888888888888888777777775F
:1021E000778888888555555666666666666666662B
:1021F00066688888833333322222222222222222D6
:102200002228888D02040608000000000102030451
:102210000102030406070809040302010807060572
:102220000C0B0A09100F0E0D1413121118171615A6
:102230001C1B1A19201F1E1D242322212827262596
:102240002C2B2A29302F2E2D343332313837363586
:102250003C3B3A39403F3E3D444342414847464576
:102260004C4B4A49504F4E4D545352515857565566
:102270005C5B5A59605F5E5D646362616867666556
:102280006C6B6A69706F6E6D747372717877767546
:102290007C7B7A79807F7E7D54657374323A20E945
:1022A000809AE8BF87E4B8B2E58FA3E8AFBBE58FBB
:1022B00096434D442B4C45442B3C4F4E2F4F4646A6
:1022C0002F544F47474C452F424C494E4B3D6D7361
:1022D0002A3EE68C87E4BBA4E68EA7E588B64C458B
:1022E000442E0054657374333A20E6BBB4E7AD94D2
:1022F000E5AE9AE697B6E599A85379735469636B8E
:10230000E68EA7E588B64C4544E68C89E4B8B2E58C
:102310008FA3424C494E4BE68C87E4BBA4E8AEBE8B
:10232000E5AE9AE591A8E69C9FE997AAE783812EFE
:102330000054657374343A20E6BBB4E7AD94E5AE5F
:102340009AE697B6E599A85379735469636BE8AE3A
:10235000A1E7AE976D61696EE587BDE695B0E79A36
:1023600084E6AF8FE7A792E8BDAEE8AFA2E6ACA1E6
:10237000E695B02E0055534152545F495251486181
:102380006E64657220436D642052656164205761FC
:10239000726E696E673A205278496E64657820657E
:1023A000786365656465642052585F4255464645CA
:1023B000525F53495A453A2025642E0A0052756EE1
:1023C000204C45445F544F47474C4528292E000A6E
:1023D000444D415F55534152545F325F5352414D1A
:1023E0003A205265636569766520436F6D706C6550
:1023F00074652E004D61696E5F4C6F6F705F506544
:10240000725F5365636F6E643A2025642E0A00473D
:10241000657420434D442B4C45442B424C494E4B54
:1024200020616E6420736574206C656420626C6941
:102430006E6B20696E202564206D732E0A00527524
:102440006E204C45445F4F464628292E0052756E3B
:10245000204C45445F4F4E28292E00476574204389
:102460004D442B4C45442B544F47474C4520616EFF
:102470006420736574206C656420746F67676C6595
:102480002E0047657420434D442B4C45442B4F464A
:102490004620616E6420736574206C6564206F66ED
:1024A000662E0047657420434D442B4C45442B4F0A
:1024B0004E20616E6420736574206C6564206F6EBD
:1024C0002E004F4E005B205468697320697320749E
:1024D000686520646174612066696C6C656420695C
:1024E0006E207661726961626C65203C2053726374
:1024F0005F5352414D5F54785F4275666665722046
:102500003E2E20427566666572206D6178206C658E
:102510006E6774683A2025642C20656E64207769A4
:10252000746820275C6E272E205D0A00444D415FB1
:1025300044656D6F5F5352414D5F325F5553415259
:10254000543A2055534152543120537472617420CF
:102550005472616E736D697474696E672E2E2E00ED
:102560008025000800000020080800002807000857
:102570000026000808080020100D0000C01F0008F9
:1025800041500C2022047088AB887004222000087F
:1025900054048850FF2254881E7C44FF017D019919
:1025A0000522FF2302012206630102190E2A0713E6
:1025B0000155FA010101FF01FF01FF61500A01010C
:1025C0000305F9010204F8000854048850FF22545E
:1025D0008818097C44FF0101017D7D0369052AFFFC
:1025E000725808040605040402018E216A070C09CA
:1025F00051EBE90101FF01FF01FF510400A24A0470
:04000005080000ED02
:00000001FF
