:020000040800F2
:100000000004002001010008090100080B0100089C
:100010000D0100080F010008110100080000000098
:1000200000000000000000000000000013010008B4
:100030001501000800000000170100081901000860
:100040001B0100081B0100081B0100081B01000820
:100050001B0100081B0100081B0100081B01000810
:100060001B0100081B0100081B0100081B01000800
:100070001B0100081B0100081B0100081B010008F0
:100080001B0100081B0100081B0100081B010008E0
:100090001B0100081B0100081B0100081B010008D0
:1000A0001B0100081B0100081B0100081B010008C0
:1000B0001B0100081B0100081B0100081B010008B0
:1000C0001B0100081B0100081B0100081B010008A0
:1000D0001B0100081B0100081B0100081B01000890
:1000E0001B0100081B0100081B010008DFF80CD0F1
:1000F00000F018F8004800477D01000800040020C7
:100100000648804706480047FEE7FEE7FEE7FEE7B1
:10011000FEE7FEE7FEE7FEE7FEE7FEE75501000823
:10012000ED0000081CB509480090094801900546FB
:10013000009C06E0E06840F0010394E8070098475F
:100140001034AC42F6D3FFF7D5FF00000C020008D4
:100150001C0200087047000081B00090009840F237
:100160009A2148430090FFE7009828B1FFE7FFE796
:10017000009801380090F7E701B0704780B584B06F
:100180000020039041F21801C4F20201086840F017
:100190001000086041F20401C4F20101086820F473
:1001A00070000860086840F48010086041F20C019B
:1001B000C4F20101086820F400500860FFE741F232
:1001C0000C01C4F201010191086840F4005008607C
:1001D0004FF4FA700290FFF7BFFF019A029811687E
:1001E00021F400511160FFF7B7FFE8E702E008C80B
:1001F000121F08C1002AFAD170477047002001E0A1
:1002000001C1121F002AFBD1704700001C02000828
:0C0210000000002000040000FC010008B9
:04000005080000ED02
:00000001FF
